S01300004430303033455F4C6162322E7372656325
S11300000C942E000C944B000C944B000C944B005D
S11300100C944B000C944B000C944B000C949B00E0
S11300200C944B000C944B000C944B000C944B0020
S11300300C944B000C944B000C944B000C944B0010
S11300400C944B000C944B000C944B000C944B0000
S11300500C944B000C944B000C944B0011241FBEC9
S1130060CFEFD4E0DEBFCDBF11E0A0E0B1E0E4E02B
S1130070F2E002C005900D92A230B107D9F723E057
S1130080A2E0B1E001C01D92A532B207E1F70E94DF
S11300904D000C9400010C94000080E090E0089561
S11300A0CF93DF9300D0CDB7DEB79A838983809155
S11300B000019091010106960E94BF00892B29F04E
S11300C00F900F90DF91CF91089589819A81909339
S11300D001018093000161E070E006960E94DF0058
S11300E0F8948091000190910101FC011582148221
S11300F0A0910201B09103011097B9F0FD0101C074
S1130100F9012481358121153105D1F79583848343
S113011014962D913C911597CD01309303012093B2
S113012002010E94500078940895009709F4FFCFCB
S113013020E030E0F2CF1F920F920FB60F921124FD
S11301402F933F934F935F936F937F938F939F93DB
S1130150AF93BF93EF93FF930E947000FF91EF91D1
S1130160BF91AF919F918F917F916F915F914F91CB
S11301703F912F910F900FBE0F901F901895DC01A7
S11301802D923D924D925D926D927D928D929D92B3
S1130190AD92BD92CD92DD92ED92FD920D931D93A1
S11301A0CD93DD93FF91EF918DB78D938EB78D93A2
S11301B08FB78D93ED93FD93882799270994DC01DC
S11301C0CB0181309105811D2D903D904D905D9026
S11301D06D907D908D909D90AD90BD90CD90DD9073
S11301E0ED90FD900D911D91CD91DD91ED91FD91DD
S11301F00D90F894FEBF0FBEEDBFED91FD910994F3
S1070200F894FFCF9C
S10502040401EF
S9030000FC
